:100000000C9433040C945B040C945B040C945B041C
:100010000C945B040C945B040C945B040C945B04E4
:100020000C945B040C945B040C9480070C94F20712
:100030000C945B040C945B040C945B040C945B04C4
:100040000C945B040C945B040C945B040C945B04B4
:100050000C945B040C945B040C945B040C94940B64
:100060000C945B040C945B040C945B040C945B0494
:100070000C945B040C945B040C945B040C945B0484
:100080000C945B040C945B040C945B040C945B0474
:100090000C945B040C945B040C945B040C945B0464
:1000A0000C945B040C945B040C945B045A0A5D0A88
:1000B0004C0A500A540A7E0A7E0A7E0A610A650AC0
:1000C000690A6F0A730A7E0A790A3E00000000007E
:1000D000003E5B4F5B3E3E6B4F6B3E1C3E7C3E1CCE
:1000E000183C7E3C181C577D571C1C5E7F5E1C0014
:1000F000183C1800FFE7C3E7FF0018241800FFE7CB
:10010000DBE7FF30483A060E2629792926407F058D
:100110000507407F05253F5A3CE73C5A7F3E1C1CA3
:1001200008081C1C3E7F14227F22145F5F005F5F63
:1001300006097F017F006689956A6060606060944F
:10014000A2FFA29408047E040810207E2010080854
:100150002A1C08081C2A08081E101010100C1E0C5F
:100160001E0C30383E3830060E3E0E0600000000F1
:100170000000005F00000007000700147F147F14D8
:10018000242A7F2A1223130864623649562050001D
:1001900008070300001C2241000041221C002A1C09
:1001A0007F1C2A08083E08080080703000080808F4
:1001B0000808000060600020100804023E51494514
:1001C0003E00427F400072494949462141494D3332
:1001D0001814127F1027454545393C4A4949314199
:1001E000211109073649494936464949291E000067
:1001F00014000000403400000008142241141414BC
:100200001414004122140802015909063E415D59A7
:100210004E7C1211127C7F494949363E41414122B0
:100220007F4141413E7F494949417F090909013EDA
:10023000414151737F0808087F00417F4100204001
:10024000413F017F081422417F404040407F021C13
:10025000027F7F0408107F3E4141413E7F0909092A
:10026000063E4151215E7F091929462649494932F6
:1002700003017F01033F4040403F1F2040201F3FBC
:100280004038403F63140814630304780403615941
:10029000494D43007F414141020408102000414183
:1002A000417F04020102044040404040000307082F
:1002B0000020545478407F2844443838444444282B
:1002C000384444287F385454541800087E090218D2
:1002D000A4A49C787F0804047800447D400020405A
:1002E000403D007F1028440000417F40007C04789E
:1002F00004787C080404783844444438FC182424E6
:100300001818242418FC7C08040408485454542465
:1003100004043F44243C4040207C1C2040201C3CE2
:100320004030403C44281028444C9090907C4464D9
:10033000544C44000836410000007700000041366C
:10034000080002010204023C2623263C1EA1A161F2
:10035000123A4040207A3854545559215555794124
:100360002154547841215554784020545579400CFB
:100370001E527212395555555939545454593955DC
:100380005454580000457C410002457D420001451F
:100390007C40F0292429F0F0282528F07C5455458C
:1003A000002054547C547C0A097F4932494949321F
:1003B0003248484832324A4848303A4141217A3A34
:1003C00042402078009DA0A07D39444444393D40FE
:1003D00040403D3C24FF2424487E4943662B2FFCAB
:1003E0002F2BFF0929F620C0887E09032054547959
:1003F000410000447D413048484A32384040227A2A
:10040000007A0A0A727D0D19317D2629292F2826A6
:100410002929292630484D402038080808080808AE
:100420000808382F10C8ACBA2F102834FA00007B07
:10043000000008142A142222142A1408950022000D
:1004400095AA005500AAAA55AA55AA000000FF00C7
:10045000101010FF00141414FF001010FF00FF1004
:1004600010F010F0141414FC001414F700FF000036
:10047000FF00FF1414F404FC141417101F10101FB5
:10048000101F1414141F00101010F0000000001FA3
:10049000101010101F10101010F010000000FF10AE
:1004A0001010101010101010FF10000000FF1400AA
:1004B00000FF00FF00001F10170000FC04F41414DC
:1004C0001710171414F404F40000FF00F7141414A8
:1004D00014141414F700F7141414171410101F1028
:1004E0001F141414F4141010F010F000001F101F4B
:1004F0000000001F14000000FC140000F010F010B9
:1005000010FF10FF141414FF141010101F0000002F
:1005100000F010FFFFFFFFFFF0F0F0F0F0FFFFFF33
:100520000000000000FFFF0F0F0F0F0F384444388A
:10053000447C2A2A3E147E02020606027E027E02C5
:1005400063554941633844443C04407E201E2006E4
:10055000027E020299A5E7A5991C2A492A1C4C7221
:1005600001724C304A4D4D303048784830BC625AA8
:10057000463D3E494949007E0101017E2A2A2A2A38
:100580002A44445F444440514A444040444A514014
:100590000000FF0103E080FF000008086B6B0836D5
:1005A00012362436060F090F060000181800000046
:1005B0001010003040FF0101001F01011E00191D35
:1005C0001712003C3C3C3C00000000000000000210
:1005D00000090F0000030401000C000000000000EF
:1005E0000000000000000000000000080B000202F4
:1005F00002010009040000010202000005240010AD
:100600000105240101010424020605240600010756
:1006100005810310004009040100020A00000007E0
:1006200005020240000007058302400000040309A0
:100630000441726475696E6F204C4C4300417264D2
:1006400075696E6F204C656F6E6172646F00120188
:100650000002000000404123368000010102030136
:1006600012010002EF020140412336800001010225
:100670000301F0F89C8E8783878E9CF8F00000FEC3
:10068000FF0303030303070EFCF80000FEFF030350
:10069000030303070EFCF80000FFFF00000000004A
:1006A0000000FFFF0000FEFF8383838383C7EE7C8F
:1006B000380000F8FC0E07030303070EFCF80000E7
:1006C0003F7FE0C08080C0E07F3FFFFF010101016C
:1006D000010101FFFF0000FFFF0C0C0C0C1C3E771A
:1006E000E3C100007FFFC0C0C0C0C0E0703F1F007A
:1006F000001F3F70E0C0C0C0E0703F1F00007FFFE0
:10070000C1C1C1C1C1E3773E1C00001F3F70E0C002
:10071000C0C0E0703F1F000000000001FFFF0100AB
:10072000000000000000240027002A002D003000F7
:10073000D5F08D14A1C881CFD9F1AF2000040802F3
:100740000110408040102040804080080204018059
:1007500040201002011080102040402000000000C6
:10076000250028002B002E0031000404040404039B
:100770000405020202020403020202020606060641
:1007800006060404020202040414021302120215F3
:1007900002070208020A020A010B020B0109020900
:1007A0000104010C0106010047616D65206E6F7444
:1007B00020666F756E64004C61756E6368696E6764
:1007C00000494E535452554354494F4E530A0A550B
:1007D000702F646F776E2F6C6566742F726967680F
:1007E000740A746F2063686F6F736520796F757218
:1007F0002067616D652E0A50726573732041207405
:100800006F2073746172742E0041726475626F7927
:100810002047616D65204368616E6765720A627981
:10082000204D61747468657720426567670A0A56CF
:10083000657273696F6E20312E300A0A52657175C8
:1008400069726573205261737062657272792050AB
:10085000690A746F206368616E67652067616D6502
:100860007300CB119E0D11241FBECFEFDAE0DEBF67
:10087000CDBF12E0A0E0B1E0E2EDF9E202C00590E8
:100880000D92A633B107D9F727E0A6E3B2E001C085
:100890001D92AF34B207E1F714E0C2E3D4E004C024
:1008A0002197FE010E947D12C133D107C9F70E9432
:1008B000AE0D0C94DC140C94000040914202509157
:1008C0004302209140023091410242175307B4F491
:1008D0009091E8009570E1F39091E80092FD19C0C5
:1008E0008093F100809142029091430201968F73B0
:1008F0009927892B19F48EEF8093E80080914202AA
:10090000909143020196909343028093420281E0CA
:10091000089580E00895CF92DF92EF92FF920F93B7
:100920001F93CF93DF931F92CDB7DEB7182F062FFB
:10093000E42E862F880F8E5F99830E945D0483E0EA
:100940000E945D04F12EC12E9981D92E8C2D8F1914
:10095000801798F4F601E7FE02C0849101C08081FF
:100960000E945D04182F80E00E945D048123FFEF48
:10097000CF1ADF0A8111EACF01C081E00F90DF9129
:10098000CF911F910F91FF90EF90DF90CF9008953E
:10099000DF92EF92FF920F931F93CF93DF93D82EA6
:1009A0008A017B01E40EF51EEB01CE15DF0571F027
:1009B000D7FE03C0FE01849101C088810E945D04BE
:1009C00021968111F2CF8FEF9FEF01C0C801DF9117
:1009D000CF911F910F91FF90EF90DF90089561509C
:1009E00030F02091F100FC0120830196F8CF289887
:1009F00084E6809351020895CF92DF92EF92FF92A6
:100A00000F931F93CF93DF936C017A018B01C0E0AA
:100A1000D0E0CE15DF0589F0D8016D918D01D601AA
:100A2000ED91FC910190F081E02DC6010995892B93
:100A300011F47E0102C02196ECCFC701DF91CF9166
:100A40001F910F91FF90EF90DF90CF900895CF937B
:100A5000DF931F92CDB7DEB76983DC01ED91FC9186
:100A60000280F381E02D41E050E0BE016F5F7F4FD7
:100A700009950F90DF91CF91089583E08093E9006D
:100A80008091F200882319F08AE38093E8000895AA
:100A9000FC018485958597FD0BC09FB7F89482E093
:100AA0008093E9008091F2009FBF90E00196089545
:100AB0009FB7F89482E08093E9008091F2009FBF95
:100AC00090E008953FB7F89480913B0290913C02EA
:100AD000A0913D02B0913E0226B5A89B05C02F3FD4
:100AE00019F00196A11DB11D3FBFBA2FA92F982F54
:100AF0008827820F911DA11DB11DBC01CD0142E0CF
:100B0000660F771F881F991F4A95D1F708952F9276
:100B10003F924F925F926F927F928F929F92AF928D
:100B2000BF92CF92DF92EF92FF920F931F93CF93DA
:100B3000DF9300D000D000D0CDB7DEB7DC016A3043
:100B4000A9F45C962C915C9758968D919C9159973D
:100B500008E0209F800D911D112459969C938E933F
:100B6000589757961C921E925697D1C06D3009F433
:100B7000CEC05C96BC905C975B962C905B975A9627
:100B80003C905A9758962D913C9159973C832B83D2
:100B900056968D919C91579780389105C4F05C963C
:100BA0002C915C97422F50E056968D919C915797CF
:100BB00036E0239F800D911D112457969C938E93B0
:100BC00056975D962C915D9721118EC0A0C00B8128
:100BD0001C81003411051CF79C0115E0B19E200D0D
:100BE000311D112412161306D4F68B2C912C2B8157
:100BF0003C8148E0B49E200D311D112412161306CD
:100C000074F6E5E06E9F2001112460E070E065302D
:100C1000710539F0FB01E40DF51DE453FF4FA4907D
:100C200001C0A12CEB80FC8008E0702EA0FC02C06B
:100C3000622C01C0632C611009C0231007C0A69468
:100C40007A94E80CF91C7110F1CF45C09C01422F39
:100C5000481B4B15A0F7A701E42FF42FFE19FB1535
:100C6000B8F52038310588F54034510570F5E69522
:100C7000E695E695CE2ED12C8A01077011271A83AE
:100C80000983F601F695FE2FEE27F795E795E20F1B
:100C9000F31F8F010D5A1D4F1E830D83E1E0F0E01D
:100CA000098002C0EE0FFF1F0A94E2F7FA83E9837E
:100CB000662029F0F801D080C980CD2805C0CE2E4D
:100CC000C094F801D080CD20C0824F5F5F4FC4CF69
:100CD0002F5F3F4FBCCF6F5F7F4F880D991D6630F0
:100CE000710509F094CF5BCF6AEF64039001659FB3
:100CF000300D112420583F4F2817390744F4CD01F7
:100D0000ED91FC910190F081E02D6AE0099581E080
:100D100090E026960FB6F894DEBF0FBECDBFDF91F0
:100D2000CF911F910F91FF90EF90DF90CF90BF90E8
:100D3000AF909F908F907F906F905F904F903F907B
:100D40002F90089508950E947A140F931F93CF93C4
:100D5000DF931F92CDB7DEB782E0898342E450E093
:100D60006BEE75E080E80E94C8040E944D0DDC0126
:100D700012960D911C9113970115110569F0D80178
:100D8000ED91FC910280F381E02DBE016F5F7F4FFA
:100D9000C801099597FF07C089810F90DF91CF9116
:100DA0001F910F910895F80100851185E5CFCF932C
:100DB000DF931F92CDB7DEB7FC018485958597FD43
:100DC00005C02FEF3FEF358724870BC0CE0101967A
:100DD0000E94230D019719F4898190E002C08FEFE2
:100DE0009FEF0F90DF91CF9108950F931F93CF93B3
:100DF000DF931F92CDB7DEB78C01FC01848595850A
:100E000097FF0EC0CE0101960E94230D019719F4A1
:100E1000298130E002C02FEF3FEFF80135872487AA
:100E2000F801848595850F90DF91CF911F910F91E7
:100E300008950F931F93CF93DF93EC0188819981DD
:100E4000009729F02A813B812617370788F48B0108
:100E50006F5F7F4F0E94B013009761F09983888382
:100E60001B830A832C813D81232B11F4FC0110820A
:100E700081E001C080E0DF91CF911F910F91089533
:100E8000EF92FF920F931F93CF93DF93EC011982A0
:100E900018821B821A821D821C826115710549F11C
:100EA0008B01FB0101900020E9F731977F01E61AE1
:100EB000F70AB7010E9419072881398181110DC0F5
:100EC0002115310519F0C9010E94181319821882E1
:100ED0001D821C821B821A820CC0FD82EC82B8012A
:100EE000C901DF91CF911F910F91FF90EF900C946A
:100EF0008814DF91CF911F910F91FF90EF9008958B
:100F00001F920F920FB60F9211248F939F9380918F
:100F1000E1009091E100937F9093E10083FF0FC087
:100F20001092E90091E09093EB001092EC0092E3B4
:100F30009093ED001092520298E09093F00082FF9F
:100F400020C093E09093E9009091F200992319F06A
:100F50009AE39093E80090914402992339F090919C
:100F60004402915090934402992389F19091510247
:100F7000992339F090915102915090935102992305
:100F800041F184FF10C08091E2008E7E81608093E9
:100F9000E2008091E1008F7E8093E1008091460223
:100FA0008E7E806111C080FF16C08091E2008E7E2F
:100FB00080618093E2008091E1008E7E8093E10069
:100FC000809146028E7E81608093460204C05D9AC5
:100FD000CDCF289AD6CF9F918F910F900FBE0F90B3
:100FE0001F9018951F920F920FB60F921124CF9257
:100FF000DF92EF92FF920F931F932F933F934F93A4
:101000005F936F937F938F939F93AF93BF93EF9370
:10101000FF93CF93DF93CDB7DEB76C97DEBFCDBF25
:101020001092E9008091E80083FFFAC168E0CE01E8
:1010300045960E94EF0482EF8093E8008D8987FF38
:1010400005C09091E80090FFFCCF03C09EEF909305
:10105000E800982F907609F0C6C09E892F89188DD8
:1010600091110CC0803829F4809147028093F100DF
:1010700002C01092F1001092F10047C1422F50E0DF
:10108000512B913051F4811140C14130510509F08B
:101090003CC1809147028D7F0BC0933061F4811178
:1010A00034C14130510509F030C18091470282605E
:1010B000809347022AC1953041F48091E80080FF77
:1010C000FCCF20682093E30020C1963009F05FC078
:1010D000EB8CFC8C1092E9001092430210924202B9
:1010E000123091F510924102109240020E94A50622
:1010F00099E0BE016F5F7F4FDB01E92F1D92EA95FA
:10110000E9F799831A8391E09E8390EA98879AEF92
:1011100099872091420230914302275F3F4F3C83E1
:101120002B838D831092E9001092430210924202A9
:10113000F0924102E092400249E050E080E00E94DB
:10114000C8040E94A506E1C0F0924102E09240026C
:101150000E944D0DDC011296ED90FC901397E11466
:10116000F10409F4C0C0D701ED91FC910480F58130
:10117000E02DBE016B5E7F4FC7010995009719F006
:101180000CF0C3C0C6C0F701E084F184E8CF97300B
:1011900009F4BFC0983021F481E08093F100B5C01C
:1011A000993009F0B2C0837009F0B3C0E7E1F1E013
:1011B00081E021E036E39081992361F08093E9009A
:1011C0002093EB0091919093EC003093ED008F5FB2
:1011D000873089F78EE78093EA001092EA008F89C2
:1011E0008093520292C08B8D9C8D1092E9001092D8
:1011F0004302109242029093410280934002898DF3
:10120000811156C08E899D89913A59F4813209F035
:1012100080C047E050E064E071E080E00E94C804D4
:1012200074C0913209F075C0833289F4888D90E0E2
:10123000982F88272F89822BA0E0B0E080930001AF
:1012400090930101A0930201B09303015EC080322C
:1012500069F48091E80082FFFCCF67E084E091E0D0
:101260000E94EF048BEF8093E80006C0823209F001
:101270004CC08F8980930B0180914502882319F01F
:10128000EEEFFAE002C0E0E0F8E080910401909116
:101290000501A0910601B0910701803B9440A10592
:1012A000B10509F088C080910B0180FFA0C083C008
:1012B0000E944D0DDC0112960D911C9113970115A2
:1012C000110539F1D801ED91FC910190F081E02DEB
:1012D000BE016B5E7F4FC8010995811116C0F801F0
:1012E00000851185ECCF1130C1F0133091F48F8956
:1012F000882309F455C08230E9F440E860E18DE3C9
:1013000096E00E948B04882321F08EEF8093E80002
:1013100087C081E28093EB0083C08B8D9C8D089702
:1013200011F410933F0280913F02811136C06EE4A8
:1013300076E038C0813029F440E86BE081E396E044
:10134000E0CF833031F70E944D0DDC011296ED9015
:10135000FC9013978E010F5F1F4F6801E114F10499
:1013600079F0D701ED91FC910680F781E02DB8016D
:10137000C7010995080F111DF701E084F184EECF34
:10138000D8011C92F60101900020E9F73197BF01C6
:101390006C197D0940E0C601B4CF60E676E002C07A
:1013A0006DE276E06115710509F4B3CFFB0144915C
:1013B00050E080E833CF0FB6F894A8958091600094
:1013C000886180936000109260000FBEA895EE3F88
:1013D0002AE0F20739F08091FE0A9091FF0A91838A
:1013E000808393CF1092FF0A1092FE0A8ECFEE3FB9
:1013F0008AE0F80731F0808191819093FF0A809311
:10140000FE0A87E797E7918380839BE088E10FB628
:10141000F894A895809360000FBE9093600075CFFC
:101420006C960FB6F894DEBF0FBECDBFDF91CF91A3
:10143000FF91EF91BF91AF919F918F917F916F91AC
:101440005F914F913F912F911F910F91FF90EF90DE
:10145000DF90CF900F900FBE0F901F901895362FF2
:1014600090E0FC01E453FA4F4491FC01E35CF84F37
:101470002491FC01E659F84F8491882309F451C066
:101480004423E1F150E0FA013197EF30F105B0F576
:10149000EA5AFF4F0C947D12909180009F7707C00D
:1014A000909180009F7D03C090918000977F9093E2
:1014B000800024C094B59F7702C094B59F7D94BDF1
:1014C0001DC0909190009F7707C0909190009F7DE4
:1014D00003C090919000977F909390000FC09091DF
:1014E000C0009F7703C09091C0009F7D9093C00083
:1014F00005C09091C200977F9093C200E82FF0E062
:10150000EE0FFF1FE45AF84FA591B4918FB7F894EE
:10151000EC91311103C020952E2301C02E2B2C936A
:101520008FBF0895CF93DF9390E0FC01E35CF84F09
:101530002491FC01E659F84F8491882361F190E0F1
:10154000880F991FFC01EE5DF84FC591D491FC0105
:10155000E45AF84FA591B491611109C09FB7F8946E
:101560008881209582238883EC912E230BC06230E2
:1015700061F49FB7F8943881822F80958323888304
:10158000EC912E2B2C939FBF06C08FB7F894E88167
:101590002E2B28838FBFDF91CF9108958F929F923A
:1015A000AF92BF92CF92DF92EF92FF926B017C01DC
:1015B0000E9462054B015C01C114D104E104F104F5
:1015C000F1F00E946205DC01CB0188199909AA0992
:1015D000BB09883E9340A105B10570F321E0C21A12
:1015E000D108E108F10888EE880E83E0981EA11C5E
:1015F000B11CC114D104E104F10419F7DDCFFF904F
:10160000EF90DF90CF90BF90AF909F908F90089514
:101610008F929F92AF92BF92CF92DF92EF92FF9202
:101620000F931F93CF93DF935C016B018A0180912D
:101630000B01882309F45EC080915202882309F4CB
:1016400059C08091460280FF05C08091E000826011
:101650008093E000E8018AEFF82E93E0E92E2FE373
:10166000822E3AE3932E209709F43DC08FB7F89469
:10167000E092E9009091E80095FF06C09091F20099
:10168000282D291B922F01C090E08FBF91110AC015
:10169000FA94FF2079F161E070E080E090E00E9430
:1016A000CE0AE1CF292F30E0C217D3070CF49C2FCC
:1016B0008FB7F894E092E9002091E80025FF11C06F
:1016C000292F30E0C21BD30BF601915020F041913D
:1016D0004093F100FACFC20ED31E9091E80095FF1F
:1016E00013C08FBFC0CF5D9884E68093440210166C
:1016F000110644F081E090E0F5019383828380E05D
:1017000090E005C0C80103C09092E800EACFDF91E5
:10171000CF911F910F91FF90EF90DF90CF90BF90EE
:10172000AF909F908F9008951F920F920FB60F92D7
:1017300011242F933F938F939F93AF93BF938091E7
:10174000370290913802A0913902B0913A0230915B
:10175000360223E0230F2D3720F40196A11DB11D81
:1017600005C026E8230F0296A11DB11D2093360265
:101770008093370290933802A0933902B0933A02D3
:1017800080913B0290913C02A0913D02B0913E02BB
:101790000196A11DB11D80933B0290933C02A09342
:1017A0003D02B0933E02BF91AF919F918F913F91C7
:1017B0002F910F900FBE0F901F9018958FB12CB1E5
:1017C00093B130E02095309520743327A90123E0B0
:1017D000559547952A95E1F7292F30E020953095CA
:1017E000207133273595279535952795242B80959E
:1017F000807F822B08951F93CF93DF931F92CDB7E5
:10180000DEB7162F682F8AE049830E942F0A612FC6
:101810008BE00E942F0A4981642F89E00F90DF91AD
:10182000CF911F910C942F0AE0914C02F0914D0240
:10183000908180914B02892B8083E0914902F09145
:101840004A02908180914802809589238083E091AB
:101850004C02F0914D02908180914B02809589233A
:1018600080830895E0914902F0914A02908180912D
:101870004802892B8083E0914C02F0914D029081C7
:1018800080914B0280958923808308958EBD00004E
:101890000DB407FEFDCF8EB508950F931F93CF9320
:1018A000DF931F92CDB7DEB7182F062F61E089E0D6
:1018B00049830E942F0A68EC70E080E090E00E946B
:1018C000CE0A60E0802F0E942F0A82E090E00E9402
:1018D0008F144981481729F0642F82E090E00E941C
:1018E000971464EF71E080E090E00E94CE0A61E01E
:1018F000802F0E942F0A0E94DE0B81238117D9F3CB
:101900000F90DF91CF911F910F9108958091530215
:101910008EBDE4E5F2E081910DB407FEFDCF8EBDF2
:1019200086E0E335F807B9F70DB407FEFDCF08955B
:10193000EF92FF920F931F93CF93DF930E941A0DA4
:10194000109238071092370710923A071092390711
:101950008AEC90E00E94EA0CF12CC5E1D0E008E0AE
:1019600010E076E0E72E2F2D30E090914E02892F87
:1019700090E0AE01481B590B241735070CF5109366
:10198000380700933707A90163E0440F551F6A9594
:10199000E1F750933A0740933907820F931FE89E6F
:1019A000F001E99EF00D1124ED55F94F4481558168
:1019B0006081718181E297E00E94FC04F394D3CFAF
:1019C00085E297E0DF91CF911F910F91FF90EF900B
:1019D0000C94860C0F931F93CF93DF938C01C0E080
:1019E000D0E0F801EC0FFD1F6491662371F0E091E7
:1019F0002107F09122070190F081E02D81E297E02C
:101A00000995892B11F02196ECCFCE01DF91CF9172
:101A10001F910F91089520E083E592E0B22FB1115C
:101A2000BFEFFC010024B193B193B193B193039440
:101A3000D1F708950E940B0DE1E2F7E0118E108EB0
:101A4000178A168A0895FC0180915202811103C001
:101A50008FEF9FEF08959FB7F89482E08093E9009D
:101A60002091F20030E01216130614F421E030E069
:101A70002115310559F0289884E680935102809110
:101A8000F10080838091F200882319F09FBFC90183
:101A900008958BE68093E800F9CF80914307811188
:101AA0000DC082E080933F0784E08093400710924E
:101AB00042071092410781E0809343078FE397E04C
:101AC00008950F931F93CF93DF93EC018AE090E08A
:101AD0000E948F149FEF980F9E3F40F522E330E065
:101AE0003F8B2E8B28E330E0398F288F0BE010E0FE
:101AF000E881F9810190F081E02D682FCE010995F0
:101B0000C8010E948F140F5F1F4F0131110581F72B
:101B1000CE0104960E94860C6CED75E080E090E0AA
:101B2000DF91CF911F910F910C94CE0ADF91CF914D
:101B30001F910F91089504970C94610DCF93DF933B
:101B4000C1E2D7E02697888199810E94181386E028
:101B5000C33AD807B9F7DF91CF910895CF93DF93B8
:101B600000D000D000D0CDB7DEB7789484B58260C5
:101B700084BD84B5816084BD85B5826085BD85B531
:101B8000816085BD80916E00816080936E001092AF
:101B9000810080918100826080938100809181002A
:101BA00081608093810080918000816080938000BB
:101BB000809191008260809391008091910081607A
:101BC000809391008091900081608093900080913B
:101BD000C10084608093C1008091C10082608093C5
:101BE000C1008091C10081608093C1008091C300D9
:101BF00081608093C3008091C00082608093C000A8
:101C00008091C20081608093C20080917A008460DC
:101C100080937A0080917A00826080937A0080912C
:101C20007A00816080937A0080917A008068809346
:101C30007A0010925202109247021092460280914E
:101C4000D70081608093D70080EA8093D80089B55F
:101C5000806189BD89B5826089BD09B400FEFDCF70
:101C600061E070E080E090E00E94CE0A8091D800B0
:101C70008F7C80618093D8008091E000807F80938A
:101C8000E0008091E1008E7E8093E1008DE0809302
:101C9000E200559A209AEEEFFFE7859194918B3FF1
:101CA0009C4D19F481E0809345021FB7F894809110
:101CB0005002811127C0EBE7F7E08491EEE4F7E0F2
:101CC0009491E82FF0E0EE0FFF1FEE5DF84FA59125
:101CD000B491EC91E92321F461E081E10E942F0AA3
:101CE00061E081E10E94920A8CB580618CBD8CB567
:101CF00080648CBD61E08FE00E94920A61E080E127
:101D00000E94920A809150028F5F809350021FBF01
:101D100009E817E0F80184910E5F1F4F3196649136
:101D2000882319F00E94920AF5CF61E086E00E94B4
:101D30002F0A61E070E080E090E00E94CE0A60E04F
:101D400086E00E942F0A6AE070E080E090E00E9446
:101D5000CE0A61E086E00E942F0AE6E7F7E0E49110
:101D6000F0E0EE0FFF1FE45AF84F859194919093A5
:101D70004D0280934C02E9E4F7E0E491E0934B02DA
:101D8000EEE6F7E0E491F0E0EE0FFF1FE45AF84FC3
:101D90008591949190934A0280934902E1E4F7E09F
:101DA000E491E09348028CB58C7F8CBD8DB5816049
:101DB0008DBD0E94140C00E317E08DE0F82EF00EAC
:101DC000F80184910E94460C0F5F1F4FF012F8CF6C
:101DD0000E94320C80916400816080936400809145
:101DE00064008260809364008091640080688093C6
:101DF0006400809164008064809364008091650039
:101E000081608093650000E014E080E00E94460C51
:101E100001501109D1F70E94DE0B87FF44C00E94D8
:101E2000140C85EA0E94460C0E94320C40E060E0EF
:101E300080E00E94FB0B0E94DE0B84FD0BC083B789
:101E4000817F83BF83B7816083BF889583B78E7F8F
:101E500083BFF1CF41E061E081E00E94FB0B0E9473
:101E6000140C84EA0E94460C0E94320C1CC060E0F4
:101E700089E00E942F0A0E94DE0B8478843821F4C6
:101E80004FEF6BE00E944D0C0E94DE0B8471843199
:101E900021F440E06AE00E944D0C68EC70E080E0C4
:101EA00090E00E94CE0A0E94DE0B82FDE0CF61E04E
:101EB00089E00E942F0A82E090E00E948F1488231C
:101EC00059F061E085E00E94920A61E08DE00E9495
:101ED000920A81E080934F0260E08AE00E942F0A1C
:101EE0000EEE1FEFF8E0AF2EB12C0E94DE0B86FF46
:101EF00006C041E061E081E00E94FB0B96C0702EBD
:101F0000FCEF0F1303C041E060E005C028E10213BD
:101F100005C040E061E081E00E94FB0B0E940B0DD8
:101F200040EF7416A4F485E297E00E94860C6BE102
:101F300070E080E090E00E94CE0A50EF75125BC026
:101F40006AEF70E080E090E00E94CE0A54C09801F1
:101F500017FF04C022273327201B310B277033279C
:101F6000C80117FD0796E3E095958795EA95E1F797
:101F700017FF05C00197B501621B730B9B017C0124
:101F8000F694FE2CEE24F794E79440E050E025010F
:101F9000421A530AF701E058FF4F4F018F3FFFEFFE
:101FA0009F0744F40196485A5F4F7401403B510526
:101FB00089F7B9CFD701A951BD4F60E070E08F3FDD
:101FC000EFEF9E0709F4CCC1FB01E40FF51FEE58BB
:101FD000F94FE4916D01C818D908CE0CDF1CF0E070
:101FE0001F01022E01C0220C0A94EAF7F60160805C
:101FF00026282082B5C10F5F1F4F0931110509F056
:1020000074CF6EEE72E080E090E00E94CE0A61E054
:1020100089E00E942F0AE0912507F09126070190A0
:10202000F081E02D85E297E0099562E370E080E0C1
:1020300090E00E94CE0A0E94DE0B8111F6CF82E46E
:1020400080932C070E941A0D0E94980C94E1292E6F
:1020500020E0622E20E0722E38E0E32EF12C48E1E1
:10206000C42ED12C52E2A52EB12C88248A94982C0F
:1020700086E0382E0E94DE0B87FF0DC010914E02C5
:10208000112349F00E94DE0B87FDFCCF1150109305
:102090004E020E94980C0E94DE0B84FF0DC010912E
:1020A0004E02143148F40E94DE0B84FDFCCF1F5F0A
:1020B00010934E020E94980C0E94DE0B85FF12C006
:1020C00010914E02112371F00E94DE0B85FDFCCFB2
:1020D000183020F0185010934E0202C010924E0299
:1020E0000E94980C0E94DE0B86FF12C010914E02D7
:1020F000153170F40E94DE0B86FDFCCF1D3020F4FC
:10210000185F10934E0202C020924E020E94980C5B
:102110000E94DE0B83FFCFC00E94DE0B83FDFCCF4D
:102120000E941A0DF0923807E0923707D0923A07D2
:10213000C092390787EB97E00E94EA0CF0923807CB
:10214000E0923707B0923A07A0923907E0914E0229
:102150001A8219821C821B821E821D823E9EF00101
:102160001124ED55F94F0081118101151105F1F090
:1021700044805580B201CE0101960E941907298141
:102180003A8181110DC02115310519F0C9010E9454
:1021900018131A8219821E821D821C821B8206C09D
:1021A0005E824D82B801C9010E9488140D811E8192
:1021B0000D5F1F4FB801CE0101960E9419072981BA
:1021C0003A81882359F08D819E816DE371E0820F01
:1021D000931F0E9488141E830D830CC021153105A6
:1021E00019F0C9010E9418131A8219821E821D82D9
:1021F0001C821B824D815E8169817A8181E297E038
:102200000E94FC0489819A810E94181385E297E05C
:102210000E94860C9092600680925F0610910B01DE
:102220006AE070E080E090E00E94CE0A1123B1F3F2
:10223000A0914E023A9ED0011124AD55B94FE091C4
:102240005306F091540614964D915C9115976D913B
:102250007C910280F381E02D83E596E00995E09181
:102260005306F09154060280F381E02D42E050E0E5
:1022700061E471E083E596E0099560E777E180E04D
:1022800090E00E94CE0AF0923807E0923707D09291
:102290003A07C092390788EA97E00E94EA0C85E283
:1022A00097E00E94860C68EB7BE080E090E00E9463
:1022B000CE0A0E941A0D0E94DE0B82FF4AC00E94C5
:1022C000DE0B82FDFCCF0E941A0D1092380710928F
:1022D000370710923A071092390789E098E00E9478
:1022E000EA0C85E297E00E94860C0E94DE0B83FDDB
:1022F00004C00E94DE0B82FFF8CF0E94DE0B83FD3C
:10230000FCCF0E94DE0B82FDF8CF0E941A0D1092C6
:1023100038071092370710923A071092390781EC6C
:1023200097E00E94EA0C85E297E00E94860C0E94EA
:10233000DE0B83FD04C00E94DE0B82FFF8CF0E94FB
:10234000DE0B83FDFCCF0E94DE0B82FDF8CF0E94E6
:10235000980C6114710409F48DCE0E94000088CE9F
:102360002115310581F0FB01E40FF51FEE58F94FFF
:10237000E491F0E0042C02C0F595E7950A94E2F7A9
:10238000DC90ED29EC936F5F7F4F119668357105F6
:1023900009F015CE07CEE3E5F6E01382128288EE4F
:1023A00093E0A0E0B0E084839583A683B78381E2C5
:1023B00091E0918380838FEF9FEF95878487E1E29F
:1023C000F7E0138212821186128680E183871086DD
:1023D0001782108A118A128A138A148A81E391E083
:1023E000918380838BE391E095838483178A168A97
:1023F000118E108E81E0828F138E848F158E64E48F
:1024000071E083EA96E00E9440076EE471E089EA99
:1024100096E00E94400767E571E08FEA96E00E942F
:10242000400762E671E085EB96E00E9440076CE6AB
:1024300071E08BEB96E00E94400768E771E081EC69
:1024400096E00E94400763E871E087EC96E00E9406
:1024500040076BE971E08DEC96E00E94400761EA6D
:1024600071E083ED96E00E94400760EB71E089ED3A
:1024700096E00E94400766EB71E08FED96E00E94C7
:10248000400763EC71E085EE96E00E9440076AEC3D
:1024900071E08BEE96E00E94400765ED71E081EF00
:1024A00096E00E94400763EE71E087EF96E00E949D
:1024B000400768EF71E08DEF96E00E94400765E00D
:1024C00072E083E097E00E9440076CE072E089E0F0
:1024D00097E00E94400764E172E08FE097E00E947D
:1024E00040076FE172E085E197E00E9440076AE2F1
:1024F00072E08BE197E00C944007EE0FFF1F059010
:10250000F491E02D0994CF93DF938230910510F47C
:1025100082E090E0E0914D07F0914E0720E030E03E
:10252000C0E0D0E0309711F1408151814817590740
:10253000C0F04817590761F482819381209719F000
:102540009B838A832BC090934E0780934D0726C0B0
:102550002115310519F04217530718F49A01BE01ED
:10256000DF01EF010280F381E02DDCCF2115310581
:1025700009F1281B390B2430310590F412968D9106
:102580009C9113976115710521F0FB019383828360
:1025900004C090934E0780934D07FD01329644C0CE
:1025A000FD01E20FF31F81939193225031092D9386
:1025B0003C933AC020914B0730914C07232B41F4B8
:1025C00020910E0130910F0130934C0720934B075F
:1025D00020910C0130910D012115310541F42DB7E9
:1025E0003EB74091100150911101241B350BE09131
:1025F0004B07F0914C07E217F307A0F42E1B3F0B9B
:102600002817390778F0AC014E5F5F4F2417350764
:1026100048F04E0F5F1F50934C0740934B07819338
:10262000919302C0E0E0F0E0CF01DF91CF910895F7
:102630000F931F93CF93DF93009709F48CC0FC0195
:1026400032971382128200914D0710914E070115A7
:10265000110581F420813181820F931F20914B0756
:1026600030914C072817390779F5F0934C07E09320
:102670004B0771C0D80140E050E0AE17BF0750F4DF
:1026800012962D913C911397AD012115310509F159
:10269000D901F3CF9D01DA013383228360817181F7
:1026A000860F971F8217930769F4EC0128813981FF
:1026B000260F371F2E5F3F4F318320838A819B81F6
:1026C00093838283452B29F4F0934E07E0934D07C3
:1026D00042C01396FC93EE931297ED0149915991E4
:1026E0009E01240F351FE217F30771F48081918159
:1026F000840F951F029611969C938E9382819381ED
:1027000013969C938E931297E0E0F0E0D801129616
:102710008D919C911397009719F0F8018C01F6CFD9
:102720008D919C9198012E5F3F4F820F931F2091B6
:102730004B0730914C072817390769F4309729F473
:1027400010924E0710924D0702C01382128210930E
:102750004C0700934B07DF91CF911F910F91089584
:10276000A0E0B0E0E6EBF3E10C94A914EC010097D3
:1027700021F4CB010E948312B8C0FC01E60FF71FC1
:102780009C0122503109E217F30708F4ACC0D901CB
:102790000D911C91119706171707B0F00530110520
:1027A00008F49FC0C80104978617970708F499C0DA
:1027B00002501109061B170B019311936D937C9323
:1027C000CF010E9418138DC05B01A01AB10A4C0101
:1027D000800E911EA0914D07B0914E0740E050E051
:1027E000E12CF12C109709F44AC0A815B905D1F5D0
:1027F0006D907C901197630182E0C80ED11CCA14C1
:10280000DB0480F1A3014A195B096A0182E0C80E6A
:10281000D11C1296BC9012971396AC91B5E0CB16D2
:10282000D10440F0B282A38351834083D9016D93D8
:102830007C930AC00E5F1F4FC301800F911FF901E7
:1028400091838083EB2DFA2FE114F10431F0D7014D
:102850001396FC93EE93129744C0F0934E07E093C7
:102860004D073FC08D919C9111974817590708F467
:10287000AC017D0112960D90BC91A02DB3CF80913B
:102880004B0790914C0788159905E1F446175707B7
:10289000C8F480910C0190910D01009741F48DB71F
:1028A0009EB74091100150911101841B950BE817C0
:1028B000F907C8F4F0934C07E0934B07F9017183D3
:1028C00060830FC0CB010E9483127C01009759F0F6
:1028D000A801BE010E947F14CE010E941813C701F7
:1028E00004C0CE0102C080E090E0CDB7DEB7EEE0DC
:1028F0000C94C51481E090E0F8940C94DC14FB0176
:10290000DC0102C001900D9241505040D8F708956B
:10291000FB01DC0101900D920020E1F70895F99987
:10292000FECF92BD81BDF89A992780B50895262FD4
:10293000F999FECF1FBA92BD81BD20BD0FB6F894A4
:10294000FA9AF99A0FBE019608952F923F924F92EC
:102950005F926F927F928F929F92AF92BF92CF922F
:10296000DF92EF92FF920F931F93CF93DF93CDB738
:10297000DEB7CA1BDB0B0FB6F894DEBF0FBECDBFB0
:1029800009942A88398848885F846E847D848C8481
:102990009B84AA84B984C884DF80EE80FD800C818A
:1029A0001B81AA81B981CE0FD11D0FB6F894DEBF6D
:1029B0000FBECDBFED01089514E0C2E3D4E004C022
:1029C000FE010E947D122196C333D107C9F7F89406
:0229D000FFCF37
:1029D200FFFFFFFF00E100000000000000004F07C2
:1029E20080000100000000C18081000000000000A2
:1029F200002705080B4805D706F5063D050000002F
:102A0200008705FC04610DFCFF00009B0D2E2E2E9D
:102A1200000D0A00417264754D696E65720042656F
:102A220067656D6D656400426C6F624174746163C9
:102A32006B00436173746C65426F79004369726322
:102A42007569744475646500446963654F664661DF
:102A5200746500457069634372617465734F6644BF
:102A620065737472756374696F6E0045766164652F
:102A72000046616E7461737952616D7061676500C1
:102A8200476C6F766500486F6C6C6F775365656B4A
:102A92006572004A6574506163004C6974746C65B8
:102AA200526F6F6B004D797374696342616C6C6F26
:102AB2006F6E00526576657273654D65726D616900
:102AC20064486F636B657900536861646F77527510
:102AD2006E6E657200536972656E65005371756141
:102AE20072696F00547261696E446F646765005465
:102AF200726F6C6C79466973680056697275734CB3
:062B0200515037390000BC
:00000001FF
